{
  "contractName": "DVideo",
  "abi": [
    {
      "inputs": [],
      "stateMutability": "nonpayable",
      "type": "constructor"
    },
    {
      "inputs": [],
      "name": "name",
      "outputs": [
        {
          "internalType": "string",
          "name": "",
          "type": "string"
        }
      ],
      "stateMutability": "view",
      "type": "function",
      "constant": true
    },
    {
      "inputs": [],
      "name": "videoCount",
      "outputs": [
        {
          "internalType": "uint256",
          "name": "",
          "type": "uint256"
        }
      ],
      "stateMutability": "view",
      "type": "function",
      "constant": true
    },
    {
      "inputs": [
        {
          "internalType": "string",
          "name": "_videoHash",
          "type": "string"
        },
        {
          "internalType": "string",
          "name": "_title",
          "type": "string"
        }
      ],
      "name": "uploadVideo",
      "outputs": [],
      "stateMutability": "nonpayable",
      "type": "function"
    }
  ],
  "bytecode": "0x6080604052600080556040518060400160405280600681526020017f44566964656f000000000000000000000000000000000000000000000000000081525060019080519060200190610053929190610066565b5034801561006057600080fd5b5061016a565b82805461007290610109565b90600052602060002090601f01602090048101928261009457600085556100db565b82601f106100ad57805160ff19168380011785556100db565b828001600101855582156100db579182015b828111156100da5782518255916020019190600101906100bf565b5b5090506100e891906100ec565b5090565b5b808211156101055760008160009055506001016100ed565b5090565b6000600282049050600182168061012157607f821691505b602082108114156101355761013461013b565b5b50919050565b7f4e487b7100000000000000000000000000000000000000000000000000000000600052602260045260246000fd5b61042f806101796000396000f3fe608060405234801561001057600080fd5b50600436106100415760003560e01c806306fdde03146100465780638a5447c514610064578063c61b5f4c14610080575b600080fd5b61004e61009e565b60405161005b9190610252565b60405180910390f35b61007e6004803603810190610079919061019e565b61012c565b005b610088610130565b6040516100959190610274565b60405180910390f35b600180546100ab90610358565b80601f01602080910402602001604051908101604052809291908181526020018280546100d790610358565b80156101245780601f106100f957610100808354040283529160200191610124565b820191906000526020600020905b81548152906001019060200180831161010757829003601f168201915b505050505081565b5050565b60005481565b6000610149610144846102c0565b61028f565b90508281526020810184848401111561016157600080fd5b61016c848285610316565b509392505050565b600082601f83011261018557600080fd5b8135610195848260208601610136565b91505092915050565b600080604083850312156101b157600080fd5b600083013567ffffffffffffffff8111156101cb57600080fd5b6101d785828601610174565b925050602083013567ffffffffffffffff8111156101f457600080fd5b61020085828601610174565b9150509250929050565b6000610215826102f0565b61021f81856102fb565b935061022f818560208601610325565b610238816103e8565b840191505092915050565b61024c8161030c565b82525050565b6000602082019050818103600083015261026c818461020a565b905092915050565b60006020820190506102896000830184610243565b92915050565b6000604051905081810181811067ffffffffffffffff821117156102b6576102b56103b9565b5b8060405250919050565b600067ffffffffffffffff8211156102db576102da6103b9565b5b601f19601f8301169050602081019050919050565b600081519050919050565b600082825260208201905092915050565b6000819050919050565b82818337600083830152505050565b60005b83811015610343578082015181840152602081019050610328565b83811115610352576000848401525b50505050565b6000600282049050600182168061037057607f821691505b602082108114156103845761038361038a565b5b50919050565b7f4e487b7100000000000000000000000000000000000000000000000000000000600052602260045260246000fd5b7f4e487b7100000000000000000000000000000000000000000000000000000000600052604160045260246000fd5b6000601f19601f830116905091905056fea26469706673582212204a701f829c09c102ca0dd263b8e44fb373052d9f43d5241c0d7bcd6e73b03a2064736f6c63430008000033",
  "immutableReferences": {},
  "source": "// SPDX-License-Identifier: MIT\npragma solidity ^0.8.0;\n\ncontract DVideo {\n  uint public videoCount = 0;\n  string public name = \"DVideo\";\n  //Create id=>struct mapping\n\n  //Create Struct\n\n\n  //Create Event\n\n\n  constructor() public {\n  }\n\n  function uploadVideo(string memory _videoHash, string memory _title) public {\n    // Make sure the video hash exists\n\n    // Make sure video title exists\n\n    // Make sure uploader address exists\n\n\n    // Increment video id\n\n    // Add video to the contract\n\n    // Trigger an event\n\n  }\n}\n",
  "sourcePath": "/Users/jeeyounghan/Projects/SolidShare/src/contracts/DVideo.sol",
  "compiler": {
    "name": "solc",
    "version": "0.8.0+commit.c7dfd78e.Emscripten.clang"
  },
  "schemaVersion": "3.4.16",
  "updatedAt": "2024-05-18T17:40:59.923Z",
  "networkType": "ethereum",
  "devdoc": {
    "kind": "dev",
    "methods": {},
    "version": 1
  },
  "userdoc": {
    "kind": "user",
    "methods": {},
    "version": 1
  }
}